:400000000080002011000000310600003106000008B5044B1A6803F53F5302331A6000F027FB00BFFA46004010B5054C237833B9044B13B10448AFF300800123237010BDE7
:400040004881FF1F0000000070160000084B10B51BB108490848AFF300800848036803B910BD074B002BFBD0BDE81040184700BF000000004C81FF1F70160000C880FF1FF6
:400080000000000008B500F05DFE08BD00B583B002460549684600F0C7FE6846FFF7F2FF03B05DF804FB00BF7416000010B5002403E00134052000F043FB00F02BFC052815
:4000C00001D8092CF5DD2C48FFF7DCFF00F022FCFFF7DCFF00F01EFC002845D000F004FCC0B2FF2840D100F0FFFB00F0FDFB00F0FBFB00F0F9FB04462048FFF7C3FF2046AF
:40010000FFF7C4FF04F040039BB213B11C48FFF7B9FF04F020039BB213B11A48FFF7B2FF04F010039BB213B11748FFF7ABFF04F008039BB213B11548FFF7A4FF04F0040363
:400140009BB213B11248FFF79DFF04F002039BB213B11048FFF796FF14F0010F0AD00E48FFF790FF204610BD0C48FFF78BFF4FF0FF3010BD204610BD78160000841600002F
:40018000A0160000B4160000C4160000D4160000E4160000F81600000C1700002417000030B583B004460D46012000F0BBFA00F0E1FB00F04DFC2B192033DB43FF228DF8BA
:4001C00000208DF801208DF8025004228DF8032003228DF8042019228DF805208DF806408DF807300821684600F01EFC002000F099FA0348FFF746FFFFF758FF03B030BD63
:400200004017000070B584B006460D461446012000F088FA00F0AEFB00F01AFC300AF6B2290AEDB2331903442B440B442833DB43FF228DF804208DF805208DF806400722FD
:400240008DF8072003228DF808201E228DF809208DF80A608DF80B008DF80C508DF80D108DF80E300B2101A800F0DEFB002000F059FA0348FFF706FFFFF718FF04B070BD18
:40028000781700002DE9F84362B6002000F04AFA00F0EAFA00F03CFD00F06CFB00F0D8FB00F0FAFC00F0A4FC00F094FC00F0BAFC012000F037FA0022642140F20320FFF70B
:4002C000A1FF012264213020FFF79CFF01210846FFF766FF00210120FFF762FF00F06EFC10F0080FFAD000F06FFC04463148FFF7C9FE2046FFF7CAFEC4F3C039C4F3803818
:40030000C4F30527C4F3850614F0030F4BD12A48FFF7B8FE4846FFF7B9FE2848FFF7B2FE4046FFF7B3FE2648FFF7ACFE3C463846FFF7ACFE2348FFF7A5FE35463046FFF731
:40034000A5FE322F00DD3224322E00DD3225B9F1000F00D06442B8F1000F00D06D421A48FFF790FE2046FFF791FE1848FFF78AFE2846FFF78BFE1648FFF784FEC4F50070B1
:400380000330002240F2FF3180B2FFF73BFF012000F0D6F905F13000012240F2FF3180B2FFF730FF9AE70B48FFF76CFE0020BDE8F88300BF84170000B8170000C4170000CA
:4003C000D0170000DC170000E8170000F41700006018000098170000FEE700BFF0B40022174611E050F82760F3B226F0FF0608E001EB420511F812406D78A5550132013BE7
:40040000DBB2002BF4D101371E2FEBD9F0BC7047064B1B78DBB203F00701054A11701B09013213704422034B1A707047CF0100496E5800407658004008B50A46002100F03D
:40044000EAFC08BD38B50024284B1C80582202331A700223264A1380182226490A704FF49C700231088002310A70234A137008224FF040231A70032103F5007319701F4BAE
:400480001B78DBB21E490B701E4B1A8041F25122023B1A8019250CE01B4B1B7803F0010343EA440404F003044FF4F07000F06CFC013D0DB1032CEFD115B90320FFF78CFFD8
:4004C000124B4FF480721A8007221A70002210490A704820023108701A700222033B1A700C4A137843F00703137038BD80400040844000408640004000430040080100492A
:40050000A146004022420040254200400440004006400040A243004008B500F071FC08BD38B572B6334A137843F00403137000240CE0314D630019194A0011462A440846E1
:4005400091882858FFF778FF0134E4B2082CF0D900240BE02849A3001819420088188022C16B806BFFF7D8FF0134E4B2002CF1D022494FF09040FFF731FF214A137843F070
:40058000020313701032137843F0020313701D4C237843F040032370A2F58632513A137843F0100313700A2217491848FFF7B4FF082217491748FFF7AFFF0A2216491748E4
:4005C000FFF7AAFF164A137843F008031370154D61232B70FFF736FF81232B700122124B1A70FFF715FF0E2221461048FFF794FF38BD00BFE8460040B41800007C00004887
:4006000003500140A043004064080048C051004070080048125100407808004820510040224300400048004004000840B043004008B500F0B9FB03680C2B00D1FEE7FEE7D8
:4006400008B5094B1A681044084BC31A802B02DC054B186005E000F0A7FB0C2303604FF0FF32104608BD00BFCC80FF1F9081FF1F08B5104E104D16E029686B68AC6800221E
:4006800004E051F8040B43F8040B0432A242F8D1E868002203E0002143F8041B04328242F9D11035013E002EE6D100F083FBFFF7E9FDFEE7010000005019000008B5104A24
:4006C000104B1A60104A136843F40073136000230AE0032B03D80D4A52F8231000E00C490C4A42F8231001332F2BF2D90A4B1A780A4B1A70074A0A4B1A60FFF711FF08BD47
:400700000004FA050CED00E014ED00E000000000310600000080FF1FBC760040C080FF1F08ED00E0044A137803F0FD03400000F002001843107070472051004001BE7047CB
:4007400010B5044605E0084B186800F01DFBA4F50044B4F5004FF6D8034B586800FB04F000F012FB10BD00BFD080FF1F70B504460E46074B1D681F2802D90020FFF7DEFF64
:4007800004F01F04103455F8240045F8246070BD08ED00E038B504460D46072902D90020FFF7CCFF1F2C02D90020FFF7C7FF04F01F0000F1604000F564406D01EDB2057073
:4007C00038BD00BF08B511490020FFF7CFFF07210020FFF7DFFF00220D4B1A7072220D4B1A702022FD3B1A700B490120FFF7BEFF07210120FFF7CEFF0622084B1A7047220E
:4008000010331A70022250331A7008BD910A00006481FF1F88650040290B00002A65004008B500F0B9FA0C4A137843F020031370FD3A137843F010031370084A0123136099
:4008400007490B7843F010030B70022305490B60136000F0A5FA08BD9865004000E100E09A65004080E200E008B5054B5B7823B9FFF7A8FF0122024B5A70FFF7D1FF08BDA2
:400880006481FF1F0122134B1A60134A9378DBB2D178C9B2127912F0FF0F01D18B4211D00E4AD05CC0B20133DBB2072B00D90023094A9370137913F0FF0F06D00022064B45
:4008C0001A7102E0064B1878C0B20122054B1A60704700BF80E100E06481FF1F7881FF1F4D64004000E100E010B50123064A1360064A147800211170054A13602402FFF7C0
:40090000C1FF204380B210BD80E100E06481FF1F00E100E00122144B1A60144B9A78D2B2DB78DBB29A4206D1104B1B7913F0FF0F15D0082014E00D4B9A78D2B2DB78DBB23D
:400940009A4205D2094AD3789078181AC0B207E0064AD3789078181A0830C0B200E000200122034B1A60704780E100E06481FF1F00E100E008B500F00FFA0B4B1A7842F09D
:4009800001021A701A7802F0FE021A7000F008FA0121064B1960064B00229A70DA701A715A71044B196008BD9D64004080E100E06481FF1F00E100E0164BD9799B79DBB27A
:4009C000994205D25A1E914214BF0022012204E0CA1A072A14BF00220122002AECD1994207D10D4B1B7813F0040F02D10B4B18707047072900D90021094B58540131054B22
:400A0000D971054B1B7813F0020F02D00222054B1A6070476481FF1F6A650040496500408081FF1F00E200E0084B5B7833B97047305DFFF7C1FF0134E4B203E070B50D46EB
:400A400006460024AC42F3D370BD00BF6481FF1F08B500F0A1F90A4B1A7842F001021A701A7802F0FE021A7000F09AF90223054A1360054A00219171D171044A136008BDC4
:400A80009965004080E100E06481FF1F00E100E01D4B1B78DBB213F01E0F05D01B4803F01E0201780A43027003F0200303F0FF0233B3174B1978C9B2164B1B78DBB216487B
:400AC000C154164B1B7813F0FF0F02D00121144B197010490B780133DBB20B700B78DBB2072B02D900210B4B19700A4B1978C9B20C4B1B78DBB2994202D10121074B197048
:400B0000002AC5D1704700BF6B6400406481FF1F4D6400406781FF1F7881FF1F6881FF1F6981FF1F6681FF1F13E0104B1B78DBB2072B02D900220D4B1A700C4A1378DBB25E
:400B40000B49CB5CDBB20B490B7013780133DBB21370064B1B78DBB2074A1278934204D0064B1B7813F0040FDFD070476A81FF1F8081FF1F496500406B81FF1F6A6500404B
:400B800008B500F009F9094A137843F020031370053A137843F010031370FF32137843F01003137000F0FCF808BD00BF9F640040014B1878704700BF6A640040014B1878D0
:400BC000704700BF69650040014B1888704700BF5964004001E0044B1B88044B1B7813F0080FF8D1704700BF596400406965004008B500F0D1F80A4B1A7842F003021A70DB
:400C00001A7802F0FC021A7001331A7842F003021A701A7802F0FC021A7000F0C1F808BD9964004008B501E00E4B1B880E4B1B7813F0080FF8D100F0AFF80C4B1A7842F04F
:400C400003021A701A7802F0FC021A7001331A7842F003021A701A7802F0FC021A7000F09FF808BD59640040696500409964004008B50F22064B1A70FFF7D4FFFFF798FF93
:400C8000FFF79CFF0023034A1370FF32137008BD8F6400408A64004008B5054B1B7823B9FFF7E6FF0122024B1A70FFF769FF08BD6D81FF1F7222074B1A702022FF3B1A70E0
:400CC00006225D3B1A70472210331A7000224F331A7070478B65004010B500F05DF804460A4A137843F020031370FF3A137843F0100313700232137843F01003137000F04E
:400D000033F8204600F04CF810BD00BF9B65004008B5054B1B7823B9FFF7CCFF0122024B1A70FFF7D9FF08BD6E81FF1F034B1B7813F0040FFAD1024B187070476E640040EB
:400D40004E64004038B5074B1B782BB938BDFFF7EDFF0134A4B201E005460024285D0028F5D138BD6E81FF1F054A137843F0040313701032137843F004031370704700BF0D
:400D8000A2430040000000000230800803D000BF01380046FCD17047EFF3108072B6704780F31088704700BF014B1868704700BF4081FF1F0E4B70B51E460E4C0025E41A6D
:400DC000A410A54204D056F8253098470135F8E700F0ACFD084B094C1E46E41AA4100025A54204D056F8253098470135F8E770BD38190000381900003819000040190000A6
:400E000010B5431E0A44914204D011F8014B03F8014FF8E710BD03460244934202D003F8011BFAE7704700000EB400B54FF402719CB0ADF814106FF00041049107914FF612
:400E4000FF711DAB02900690084853F8042BADF81610006802A9019300F064F8029B00221A701CB05DF804EB03B070474081FF1F2DE9F0478E6882469E420C4691469846F6
:400E80003ED88A8912F4906F3AD02568096902236F1A656905EB450595FBF3F57B1C43449D4238BF1D4653050FD5294600F040FB064698B13A462169FFF7A2FFA38923F427
:400EC000906343F08003A38113E02A4600F08EFB064670B92169504600F0DEFA0C23CAF80030A3894FF0FF3043F04003A381BDE8F08726613E44266046466561ED1BA5608D
:400F0000464528BF464649463246206800F0A8FAA36800209B1BA36023681E442660BDE8F08700002DE9F04F9DB003938B8980461C060D4616460DD50B695BB9402100F081
:400F4000F7FA2860286118B90C23C8F80030CDE040236B610023099320238DF82930DFF89CB130238DF82A3037463C4614F8013B1BB9B7EB060910D003E0252BF9D0274658
:400F8000F3E74B46324629464046FFF771FF013000F0A780099B4B4409933B78002B00F0A08000234FF0FF3204930793059206938DF853301A930126052221784E4800F0D8
:400FC00041FA671C049B38B14B4A3C46801A06FA00F018430490EFE7D90644BF20228DF853201A0744BF2B228DF8532022782A2A03D0079A00210A200BE0039A111D1268E3
:401000000391002A10DA524243F00200079204900BE027463B780134303B092B03D800FB02320121F5E701B107923B782E2B1ED17B782A2B0AD1039B02371A1D1B6803929C
:40104000002BB8BF4FF0FF33059310E0002319460593781C0A2407463A780130303A092A03D804FB01210123F5E703B1059103223978224800F0E6F940B14023CBEB0000CD
:4010800003FA00F0049B013718430490397806221B487E1C8DF8281000F0D4F988B1194B33B9039B073323F007030833039314E003AB00932A46144B04A94046AFF3008085
:4010C00007E003AB00932A460F4B04A9404600F093F8B0F1FF3F824603D0099B5344099342E7AB895B0601D4099801E04FF0FF301DB0BDE8F08F00BFF8180000FE180000A6
:401100000219000000000000710E00002DE9F04791461F460A698B6806469342B8BF1346C9F8003091F843200C46DDF8208012B10133C9F800302368990642BFD9F800307D
:401140000233C9F80030256815F0060510D104F1190A07E00123524639463046C04701301AD00135E368D9F800209B1A9D42F1DB94F843302268003318BF012392060FD5F4
:40118000E118302081F843005A1C94F845102244023382F8431003E04FF0FF30BDE8F08704F1430239463046C0470130F4D02268D9F80050E36802F00602042A08BF5D1B76
:4011C0002269A3680CBF25EAE57500259342C4BF9B1AED184FF000091A344D4509D00123224639463046C0470130D5D009F10109F3E70020BDE8F0872DE9F04317460A7E47
:4012000085B06E2A984606460C460C9B01F1430E00F0AE8011D8632A22D009D8002A00F0BB80582A40F0CA8081F84520834955E0642A1ED0692A1CD0C0E0732A00F0B0808C
:4012400009D86F2A2ED0702A40F0B8800A6842F020020A603EE0752A24D0782A3AD0ADE01A6801F14205111D1960136884F84230A8E021681A6811F0800F02D0111D196073
:4012800008E011F0400F02F10401196002D0B2F9003000E01368002B3CDA2D225B4284F8432037E021681A6811F0800F02D0111D196007E011F0400F02F10401196001D0CD
:4012C000138800E01368227E5C496F2A14BF0A2208221BE078225A4984F845202268186812F0800F00F104051D6003D1550601D5038800E00368D00744BF42F0200222603B
:401300001BB9226822F0200222601022002084F8430001E049490A226568002DA56008DB206820F0040020602BB9002D7DD175460CE0002B79D07546B3FBF2F002FB1033E6
:40134000CB5C05F8013D03460028F5D1082A0BD12368DA0708D5236962689A42DEBF302305F8013C05F1FF35C5EB0E0323612EE008681A6810F0800F496903D0101D1860F9
:40138000136808E010F0400F02F104001860136801D0198000E0196000232361754616E01A68111D1960156800216268284600F049F808B1401B6060636804E004F1420587
:4013C00084F8422001232361002384F84330CDF800803B4603AA21463046FFF797FE013002D14FF0FF3026E023692A4639463046C0470130F5D023689B0710D5002504F1E8
:40140000190907E001234A4639463046C0470130E7D00135E368039A9B1A9D42F2DBE068039B9842B8BF184605E00B7804F1420584F842308AE705B0BDE8F0830919000005
:401440001A19000010B5C9B202449042034605D01C7801308C42F8D1184610BD002010BD884210B501EB020301D8421E0BE09842FBD28118D21AD34204D013F8014D01F844
:40148000014DF8E710BD994204D011F8014B02F8014FF8E710BD000038B50546002944D051F8043C0C1F002BB8BFE41800F0D4F81E4A1368114613B96360146030E0A34283
:4014C0000DD92268A018834201BF18685B681218226063600C6023E0A24203D813465A68002AF9D118681918A1420BD12168014458188242196013D1106852680144196091
:401500005A600DE002D90C232B6009E021686018824201BF106852680918216062605C602846BDE8384000F098B838BD7481FF1F70B5CD1C25F0030508350C2D38BF0C2513
:40154000002D064601DBA94202D90C23336046E000F082F8234B1C681A462146A1B10B685B1B0ED40B2B03D90B60CC18CD501EE08C420BBF63684B681360636018BF0C4637
:4015800015E00C464968E9E7174C23681BB9304600F052F820602946304600F04DF8431C18D0C41C24F00304A0420DD12560304600F053F804F10B00231D20F00700C31AEB
:4015C0000ED05A42E25070BD211A304600F034F80130EBD10C233360304600F03EF8002070BD00BF7481FF1F7081FF1FF8B5074615460E4621B91146BDE8F840FFF798BFC8
:401600001AB9FFF749FF2846F8BD00F027F885420ED929463846FFF78BFF044650B131462A46FFF7EDFB31463846FFF735FF01E03046F8BD2046F8BD38B5064C0023054649
:4016400008462360FEF7FCFF431C02D1236803B12B6038BD8881FF1F7047704751F8040C0028BEBF091851F8043CC018043870470000000025640A0042662073697A65207A
:401680003A2000004552524F5220434845434B3A2052657475726E6564203A2000000000496E737472756374696F6E204572726F720A00004F7665726C6F61642045727250
:4016C0006F720A00436865636B73756D204572726F720A0052616E6765204572726F720A000000004F76657268656174696E67204572726F720A0000416E676C65204C690B
:401700006D6974204572726F720A0000496E70757420566F6C74616765204572726F720A000000004552524F5220434845434B3A204E4F2052455455524E200A00000000CC
:401740004C45445F436F6E74726F6C0A000000005365745F49443A2000000000202D3E2000000000506F736974696F6E3A2000004D6F76650A0000004D6F766553706565B9
:40178000640A000052656365697665642056616C75653A20000000004572726F723A20436865636B206269747320617265206E6F74207A65726F2E005369676E5F303A20B8
:4017C000000000005369676E5F313A200000000056616C75655F303A2000000056616C75655F313A20000000496E7075745F303A20000000496E7075745F313A20000000AE
:40180000546F727175655374617475730A00000053657452657475726E4C6576656C0A0072657365740A000070696E670A0000004D6F7665537065656420526567697374F1
:4018400065722057726974650A000000616374696F6E0A005265616420566F6C746167650A0000004572726F722044657465637465640000526561642054656D70657261A6
:40188000747572650A0000004275666665722073697A653A200000005265616420506F736974696F6E0A0000526561642053706565640A000051004010003051004040009B
:4018C000F0510040100000000140800C000D0140000300140140000800400140000A004C014000020050014020000000800C0140E407004880004300232D302B2000686CAF
:401900004C00656667454647003031323334353637383941424344454600303132333435363738396162636465660000F8B500BFF8BC08BC9E4670474D000000BD060000C4
:40194000F8B500BFF8BC08BC9E4670472900000060190000C880FF1F8000000048000000000000009081FF1F0000E02EC05D00001800000000366E01000000000000000001
:40198000000000000000000000000000000000000000000000000000F618000000000000000000000000000000000000000000000000000000000000000000000000000019
:4019C000000000000000000000000000000000000000000000000000E080FF1F00000000000000000000000000000000000000000000000000000000000000000000000069
:401A000000000000000000000000000000000000000000000000000000000000000000000000000000000000000000000000000000000000000000000000000000000000A6
:401A40000000000000000000000000000000000000000000000000000000000000000000000000000000000000000000000000000000000000000000000000000000000066
:401A80000000000000000000000000000000000000000000000000000000000000000000000000000000000000000000000000000000000000000000000000000000000026
:401AC00000000000000000000000000000000000000000000000000000000000000000000000000000000000000000000000000000000000000000000000000000000000E6
:020000040003F7
:0200000480007A
:40000000035200400564004004650040010501400406014002070140540801404C0901404A0A01405B0B0140160C0140480D0140560E0140320F0140011501405B18014063
:40004000501901404D1A01404F1B014003400140024101400442014001430140024401400B450140084601400148014003490140044D0140055001400151014011206080E5
:4000800064408A478B388C388E0F8F0F887289788A0F8B72E608B902BF01D904DF0123808B8000670218041808080C7F1419166218391A441E66220124012C10303832581E
:4000C000341F3A283B02580459045C225F0180338144820C85E787188804893C8BC28C088F04903F9118941C95C09623980399809DFF9E23A001A3E3A402A508A81FA91C54
:40010000AA20ABE1AC0CAD10B22CB31FB40FB538B610B7C0BA2ABB08BE40C003C102C230C406C9FFCAFFCBFFCC02CE70CF0CD08CD110D608D804D904DA24DB04DC11DD08AB
:40014000DF01E840E901EAC0EB010180028407A908800A480B500D800E281046122014201642180819241AC11B201E281F0523152601288429802A042C402D013002310177
:40018000326434043504380839013B904010411048045B4060027A02891090149180920293809420952296089757984099029A109C959D209E099F81A004A202A308A40830
:4001C000A541A634A710B420B540C0FBC2EFC4BFCA0FCC0FCE0FD006D204D608D808DE08E420060208010B010E081010130216011A041E022008260827022A012C0130081F
:400200003201330234063610370138083E513F04400641024260440345FC46EB470D481F49FF4AFF4BFF4C234EF04F0C508C51105441580459045A245B045C015D085F0180
:40024000684069016AC06B01800183018A02920296019A019E04A001AC04B001B101B202B404B802BE14D418D604D804D904DB04DC02DD10DF0101600220060807800840C8
:400280000A880B100EA80F021004129013401420174919081A401BA01C041E801F0421402288274029082A202B0430203111340836083A103C083F0A411042204402454099
:4002C00049064B2050605104530859105A405B085D205E105F016320640866427A028040838086029010928293A09420950A9610974E986099019A509C939D049E01A00481
:40030000A202A301A408A501A720AD10B040B108C057C2FFC49FCA02CC01CE84D006D204D68ED8B2DE08E001E404EA0203010E0516011C052202240528052F01300131013F
:400340003204340436023E153F015418580459045B045C015D205F0101020302070109800A840D040E0210241280144017141A841C101D101E401F50212822012740281129
:400380002A012F013008312035803740382039423D0240804210432049014A044B404D404E01504059145A405C025E085F0460206210630265806708948095209604970440
:4003C000980499029A409B15A024A180A283A302AA02C089C2ABC47ECA1BCC06CE8DD007D20CD68ED83EEA0100AC024307010B020C310E4E0F01143016401A8C1B061D1080
:4004000021082208230226532831290E2AC62D0E308A3101331034F0350C360F370239203AA23F554062410545E046CB480E49FF4AFF4BFF4EF04F44500C540158045904AB
:400440005A045B045C025D225F0166C06A406B028C108E01921E9A219C019E02A401A608A801AA04B020B41FBE10C003C540C9FFCA07CBFFCC40CD20CEF0CF05D008D602F1
:40048000D804DA04DB24DC08DD82DF01E040E1A8E240E3200102030207010A140B200D100E821024128015021640171419101B431C081E80210122442308280429522B411F
:4004C00030A038A03B0443204708488049514E805010518053105420572059015A986E026F157E02C089C2D6C46ECA0DCC0CCE0ED044D20CD60FDE10E602033309220D3308
:40050000117F154C1733190C1D731F0C21082504294F2B302D112F80310F3380354037303B023F10405141044202440647CE483049FF4AFF4BFF4C624DA04EF04F41500CA2
:400540005602571359045A045B045C205D125F016640670269106A306B106D106E106F128001812A83048D338F0C9308971599339B04AD03AF04B001B10FB330B908BB0246
:40058000BE01BF04C046C102C5E0C6BCC80EC9FFCAFFCBFFCEF0CF44D00CD420D804D904DA04DB04DC10DD01DF01E6C0EA40EB02010208010B800D800F011B012040210445
:4005C0002540261A27802A402C202D402E022F04301831103201360537A1384239023B803E203F814040420444084580470148084A804E024F105090524055015608590263
:400600005E01601463026F2A7580760477108D018F109004918092039308942095029608984A99029A109CB19D819E0F9FA9A205A408A5C1A628A710B2C8B320B408B7493A
:40064000C008CAF8CCF7CEB9D0B5D234D681D80E00100B080D080E0810411226142C150216431705184119241A0E1B121E2C211122402322257729772A432D403040314036
:4006800032103307342A3530360F37083AA03E053F404003474049FF4A074BFF4C404D204EF04F05500854015604580459045A045B045C115D115F01604061A8624063201D
:4006C0008444862A9002921598E7A421A64AA8E7AC80B007B218B460B680BE04D602D711D804DB04DC02DD20DF0101020281040406200A260B800E880F80108814201550D2
:40070000180219141A441C041D801E9021012224230228402B2A322439803A103E103F10408041055008520159065A405B105E2063406D506E0874207602772880808310C2
:40074000874088208C018E108F129188920293809402960C971098409A109CA09D109E239F28A080A290A32AA428A580A620A750A812B420B540C029C25FC4EACA0FCC06F9
:40078000CE0CD002D62FD80133803620CC30A620A7808780A620A780E610A6207C40DE040002048008015008620294C0A840C009C208D404D802804082029440A602AC0136
:4007C000B009EA01EC04A6208620A620E64010408840C408E20100070C070E0710071C07000F00001C1C224200000000001400002C09111000000300008000000920100309
:400800001400000010100000404C001130000C000050000C1FC00020601F000020020000000000043405060002E00C0006FFFFFF62A0F0410C000000000008000404040424
:40084000120100010000000000004002001030100010101200000000000000000000000000000000800040808000800000000000000B0B00000000000100182322002100CB
:400880000000000000000000000000000000000000000000000000000000000000000000000000000000000000000000000000000000000000000000000000000000000038
:4008C00000000000000000000000000000000000000000000000000000000000000000000000000000000000000000000000000000000000000000000000000000000000F8
:4009000000000000000000000000000000000000000000000000000000000000000000000000000000000000000000000000000000000000000000000000000000000000B7
:400940000000000000000000000000000000000000000000000000000000000000000000000000000000000000000000000000000000000000000000000000000000000077
:0200000490006A
:0400000000004005B7
:0200000490105A
:04000000BC90ACAF55
:0200000490303A
:02000000BDFE43
:0200000490402A
:4000000000000000000000000000000000000000000000000000000000000000000000000000000000000000000000000000000000000000000000000000000000000000C0
:400040000000000000000000000000000000000000000000000000000000000000000000000000000000000000000000000000000000000000000000000000000000000080
:400080000000000000000000000000000000000000000000000000000000000000000000000000000000000000000000000000000000000000000000000000000000000040
:4000C0000000000000000000000000000000000000000000000000000000000000000000000000000000000000000000000000000000000000000000000000000000000000
:0200000490501A
:0C00000000012E16106900012E21CE67B1
:00000001FF